:0D00FB000B08C0F9A4B0999282F88090FF24
:0B010900EF1FAC0670011E4C70F622C8
:10008F00EF24FB601314601914601F24037023E521
:10009F00A0541F4480F5A022E5A0541F44A0F5A052
:1000AF0022E5A0541F44C0F5A022E5A0541F44E050
:0300BF00F5A02287
:1000C200AE077F0612008FAF057401A807088002F1
:0E00D200C333D8FCF5807F0712008F8E80228A
:1000E000E4FDAF091200C27FF47E011201090DAFD9
:0B00F000081200C27FF47E010201092B
:050114001200E080FB79
:03000000020003F8
:0C000300787FE4F6D8FD75811202004AF7
:10000F00020114E493A3F8E493A34003F68001F2F2
:10001F0008DFF48029E493A3F85407240CC8C333F2
:10002F00C4540F4420C8834004F456800146F6DFC1
:10003F00E4800B01020408102040809000FBE47E56
:10004F00019360BCA3FF543F30E509541FFEE493B6
:10005F00A360010ECF54C025E060A840B8E493A37D
:10006F00FAE493A3F8E493A3C8C582C8CAC583CAA8
:10007F00F0A3C8C582C8CAC583CADFE9DEE780BE60
:0101080000F6
:00000001FF
