:0300000002046C8B
:0C046C00787FE4F6D8FD7581200204784A
:1003CF00C0F9A4B0999282F880908880C6C0868EBA
:0C03DF00BF7F4079243019120278001012
:0A043300E493FD1204057FC87E006B
:0B043D00EF1FAC0670011E4C70F62291
:10034A00EF603624FB601414601B146022240370CF
:10035A002BE5A0541F4480F5A08021E5A0541F443A
:10036A00A0F5A08017E5A0541F44C0F5A0800DE5B4
:10037A00A0541F44E0F5A0800353A01F53A01F22DE
:100405007401A807088002C333D8FCF5807F061263
:08041500034A8D800F02034A27
:10045C00AE077580FF7F0612034A8E800F02034A97
:10023D00AE0CAF0D7C037DE81201DA74CF2FF58281
:10024D0074033EF583E493FD7F041204057FF47E71
:10025D000112043D7DFF7F04120405AE0CAF0D7C31
:10026D00007D641201DA7C007D0A1201DA74E12D41
:10027D00F58274033CF5837F051204337DFF7F0502
:10028D00120436AE0CAF0D7C007D0A1201DA7C0033
:10029D007D0A1201DA74CF2DF58274033CF5837F4C
:1002AD00061204337DFF7F06120436AE0CAF0D7CB3
:1002BD00007D0A1201DA74CF2DF58274033CF583AB
:1002CD00E493FD7F071204367DFF7F071204367F0E
:0B02DD00FF12045C7FC87E0002043D9D
:1002E80012038A7FCC1203B17F441203B112038A2E
:1002F8007FCC1203B17FBE1203B11203EB8F0F1232
:1003080003EB8F0E12038AE50EFEE50FFFFDAC0628
:10031800E412010EE4FBFA7980783D1200038F0B9A
:100328008E0A8D098C08E4FFFE7DC87C42AB0BAABF
:100338000AA909A8081200031201478E0C8F0D02A2
:02034800023D74
:100448007580FF7F0412034AE4F5800F12034A7F88
:04045800FF02045C3F
:080478001204481202E880FBA7
:04041D007F057E00D9
:100421007C007D0A1201C8EF1FAC0670011E4C70E2
:02043100F622B1
:0203B100AB0798
:1003B300E4FAC294EB13929412041DD294EBC31388
:0C03C300FB0ABA08ED7F057E0002042151
:1003EB00E4FAC294EBC313FBD2943094034303801F
:0903FB0012041D0ABA08EBAF035D
:0104040022D5
:10038A00C200D2947F0C7E00120421C2947F507E58
:10039A0000120421D2947F0A7E00120421A29492B0
:0603AA000012041DA20078
:0103B000222A
:10000300EC4D6011E8497017ED33EC3304600DE4F7
:10001300FCFFFEFD22E933E8330470F80201B3125A
:10002300017E58046009E4CC24815006285009025B
:1000330001BD2840030201BAC0E0EB4A7044B98015
:1000430006D0E0FB0201A9EF4E701CBD8008EBFF58
:10005300EAFEE9FD80EBE98DF0A4FEE5F00200EC99
:10006300E9CDF9EAFEEBFFEF89F0A4FCE5F0CE89D8
:10007300F0A42EFFE435F0CD89F0A42DFEE435F095
:100083008067EF4E7005BD80D780C3EF8BF0A4ACC3
:10009300F0EE8BF0A42CFCE435F0F8EF8AF0A42CFE
:1000A300E5F038FCE433CB8DF0A42CFCE5F03BF811
:1000B300EE8AF0A42CFCE5F038F8E433CF89F0A401
:1000C3002CFCE5F038CF3400CE89F0A42FFFE5F007
:1000D3003EFEE433C98DF0A42EFEE5F039CD8AF05F
:1000E300A42FFFE5F03EFEE43DFD33D0E0FB5007D7
:1000F3000BBB000F0201BDEC2CFCEF33FFEE33FE14
:06010300ED33FD02019541
:1001090075F020800E75F010800575F0087D007E71
:10011900007F003392D530D50312022FEC33401003
:10012900EF33FFEE33FEED33FDEC33FCD5F0ED227A
:0E013900E5F0247EA2D513CC92E7CDCEFF22B6
:10014700EDD2E7CD33EC3392D524814006E4FFFEB0
:10015700FDFC22FCE4CFCECDCC24E0501174FF800F
:10016700EDC3CC13CCCD13CDCE13CECF13CF0470AC
:07017700F030D5DE02022F7B
:10017E00E9D2E7C933E833F892D5EDD2E7CD33ECC7
:07018E0033FC5002B2D52240
:10019500EC30E7100FBF000C0EBE00080DBD0004CB
:1001A5000BEB6014A2D5EB13FCED92E7FD2274FF77
:1001B500FCFDFEFF22E480F8A2D574FF13FC7D80D0
:0301C500E480EFE4
:1001C800EF8DF0A4A8F0CF8CF0A428CE8DF0A42E4B
:0201D800FE2205
:1001DA00BC000BBE0029EF8DF084FFADF022E4CC09
:1001EA00F875F008EF2FFFEE33FEEC33FCEE9DECD2
:1001FA00984005FCEE9DFE0FD5F0E9E4CEFD22ED18
:10020A00F8F5F0EE8420D21CFEADF075F008EF2F61
:10021A00FFED33FD4007985006D5F0F222C398FD52
:05022A000FD5F0EA22EF
:0E022F00C3E49FFFE49EFEE49DFDE49CFC22E0
:00000001FF
