:10025F00E4FEC297EF1392A3EFC313FFD2970EBE24
:02026F0008F095
:01027100226A
:10023700C29300C29700D2930012025FAF05120269
:040247005FC29322DD
:10013100E4FDC29300C29700D2930012025FE4FF74
:10014100C297EDC313FD30A303430580D2970FBFC0
:1001510008EEC29300C29700D29700C2A300D2A3B7
:0301610000AF05E7
:010164002278
:1001BF00C0F9A4B0999282F880908880C6C0868ECC
:1001CF00BF7F81838587898B8D80828486888A8C87
:0902A1000708305023170206186B
:0D024B00C4540F9001BF93FD1201DF7FF43A
:07025800AE071FEE70FA2251
:10016500EF24FC601414601514601914601A240738
:10017500701CC2A5C2A6C2A722C2A58002D2A5C272
:0F018500A6D2A722C2A58002D2A5D2A6D2A722B7
:100272007F041201657580FFE4FF120165E4F580D9
:010282002259
:1001DF00AE077F06120165AF067401A807088002FB
:0E01EF00C333D8FCF5807F071201658D802296
:10019400E4FD7F8E120237E4F50FE50F9001D8934A
:1001A400FF7408250FF8E6FD120237050FE50FC3AB
:0B01B400940740E67D807F8E0202373A
:1001FD00E4F50FE50F9001D193FF1201317408253D
:0D020D000FF8A607050FE50FC3940740E6A4
:01021A0022C1
:10021B009001BFE493FDE4FF1201DF7FC812025887
:0C022B007DFFE4FF1201DF7FC8020258D3
:10028300AE077580FF7F061201658E800F02016540
:10000300E4FCE50AC4540F9001BF93FDE4FF120220
:10001300537DFFE4FF120253E50A540F93FD7F0162
:100023001202537DFF7F011202539001CFE493FD2F
:100033007F021202537DFF7F02120253E5097F0301
:1000430012024B7DFF7F03120253E509540F93FD08
:100053007F041202537DFF7F041202539001CFE409
:1000630093FD7F051202537DFF7F05120253E508BE
:100073007F0612024B7DFF7F06120253E508540FE1
:1000830093FD7F071202537DFF7F071202537FFF09
:100093001202837F881202580CEC64096003020089
:0100A3000557
:0100A4002239
:0E0293001202721201941201FD12000380F893
:030000000200A556
:0C00A500787FE4F6D8FD75810F0200ECB6
:1000B100020293E493A3F8E493A34003F68001F2D0
:1000C10008DFF48029E493A3F85407240CC8C33350
:1000D100C4540F4420C8834004F456800146F6DF1F
:1000E100E4800B01020408102040809002A1E47E0C
:1000F100019360BCA3FF543F30E509541FFEE49314
:10010100A360010ECF54C025E060A840B8E493A3DA
:10011100FAE493A3F8E493A3C8C582C8CAC583CA05
:10012100F0A3C8C582C8CAC583CADFE9DEE780BEBD
:0102AA000053
:00000001FF
