:06008100F5807F507EC3F4
:0B008700EF1FAC0670011E4C70F6224B
:10000300EF24FB601314601914601F24037023E5AD
:10001300A0541F4480F5A022E5A0541F44A0F5A0DE
:1000230022E5A0541F44C0F5A022E5A0541F44E0DC
:03003300F5A02213
:10003600D2A5C2A5C2A7E4FD74FFA805088002C325
:1000460033D8FC1200810DBD09EEE4FD74FFA8054E
:0F005600088002C333D8FCF41200810DBD09ED00
:010065002278
:100066007F041200037580F07FA07E8612008775DC
:0B007600800F7FA07E8612008780E5CF
:0300000002009269
:0C009200787FE4F6D8FD75810702006657
:00000001FF
