:1007FE000E29C0F9A4B0999282F88090FFC68C8819
:10080E000B3840792430191202780010FF022600AE
:0C081E0000013700012819012501C1006C
:10091C0075F00A8474297F0725F0F8E6FD12085B50
:02092C007F3218
:07092E00AE071FEE70FA2274
:0F0981008F08AF081508EF600512059980F42262
:1007CB00EF24FB601314601914601F24037023E5DE
:1007DB00A0541F4480F5A022E5A0541F44A0F5A00F
:1007EB0022E5A0541F44C0F5A022E5A0541F44E00D
:0307FB00F5A02244
:040857002DF8E6FD95
:10085B00AE077F071207CB7580FF1F1207CBAF06C2
:10086B007401A807088002C333D8FCF5807F0712F8
:05087B0007CB8D802277
:1006CD001208807FCC1208C77F441208C712088019
:1006DD007FCC1208C77FBE1208C71209028F0A12FB
:1006ED0009027526008F27E527F526E50AF527E58A
:1006FD0026C4F854F0C868F526E527C4540F48F50C
:10070D0027AC26FDE41202A6E4FBFA7980783D12AF
:10071D0000FB1202DF8E268F277C007D0A120360FC
:04072D008E268F275E
:0107310022A5
:0C09AE0090C00074FFF090E000EFF02219
:1003D500C2B0D2B3D2B2D2B1D2B5D2C2D2C420C485
:1003E5000B7FF412092E30C4FD75370720C20B7F31
:1003F500F412092E30C2FD75370B20B50B7FF412B0
:10040500092E30B5FD75370F20B40B7FF412092E78
:1004150030B4FD753713C2B1D2B3D2B2D2B0D2B5B2
:10042500D2C2D2C420C40B7FF412092E30C4FD758C
:10043500370620C20B7FF412092E30C2FD75370A2C
:1004450020B50B7FF412092E30B5FD75370E20B49B
:100455000B7FF412092E30B4FD753712C2B2D2B338
:10046500D2B1D2B0D2B5D2C2D2C420C40B7FF4125D
:10047500092E30C4FD75370520C20B7FF412092EF5
:1004850030C2FD75370920B50B7FF412092E30B542
:10049500FD75370D20B40B7FF412092E30B4FD75B0
:1004A5003711C2B3D2B2D2B1D2B0D2B5D2C2D2C450
:1004B50020C40B7FF412092E30C4FD75370420C209
:1004C5000B7FF412092E30C2FD75370820B50B7F5E
:1004D500F412092E30B5FD75370C20B40B7FF412DC
:0904E500092E30B4FD7537102218
:10059900AE26AF277C007D0A12037274297F0712E9
:1005A90008577FC812092E7DFF7F0712085B7FC895
:1005B90012092EAE26AF277C007D0A1203727C0039
:1005C9007D0A12037274387F061208577F50120988
:1005D9002E7DFF7F0612085B7FC812092EAE26AF5B
:1005E900277C007D6412037274292FF8E6FD7F05CC
:1005F90012085B7FC812092E7DFF7F0512085B7FF9
:10060900C812092E7F0412085B7FC812092E7F03C6
:1006190012085B7FC812092E7F0212085B7FC8127D
:10062900092E7F0112085B7FC812092EAD34E4FF41
:0806390012085B7FC802092EC4
:10094C00E537B4080415288007E537B409050528F0
:04095C00E4F5372265
:10078F00E52812091CE52875F00A842429F8E6FDEE
:10079F007F061209297DFF7F051209297F0412099F
:1007AF00297F031209297F021209297F01120929C2
:0C07BF00AD35E4FF12085B7F3202092E0A
:1008A7008F0912099F7F9012082B1209607F40124F
:1008B700082B120960AF0912082B1209600209C63A
:1004EE00E537B40505B200E4F537200025E528759B
:1004FE00F064A4FFC3E5279FE52695F0E4500AF5C6
:10050E0024F523F522F521806AF524F5237522A022
:10051E00802E30005EC3E52794D0E5269407500D5B
:10052E00E4F524F52375228075213F8046D3E52717
:10053E0094A0E526940F400DE4F524F52375228052
:10054E00752140802EAC26AD27E41202A67B9A7A46
:10055E00997919783E1200FBE4FBFA79C8784212B9
:10056E000204E4FBFAF978C012000A8F248E238D60
:10057E00228C21E4FFFE7D4C7C42AB24AA23A922CF
:0B058E00A8211200FB1202DF0208A7E8
:10073200AF24AE23AD22AC211202DFEF75F064A428
:10074200FCAD36E4FF1209297DFF7F011209297FE2
:10075200021209297F031209297F041209297F0540
:10076200120929EC75F0648475F00A8474387F06E6
:10077200120924EC75F00A8412091C7F00EF242967
:0D078200F8E6FD7F0812085B7F3202092EA9
:100971007F041207CB7580FF1206CD12059980F80E
:040990007F057E0061
:0B099400EF1FAC0670011E4C70F62235
:0208C700AD077B
:1008C900E4FBC294ED139294120990D294EDC313F0
:0C08D900FD0BBB08ED7F057E00020994BA
:10090200E4FBC294EDC313FDD294309403430580FB
:090912001209900BBB08EBAF05C4
:01091B0022B9
:10088000C203D2947F0C7E00120994C2947F507EE2
:1008900000120994D2947F0A7E00120994A29492C5
:0608A00003120990A203FF
:0108A600222F
:0409BA00D2A07F0543
:0809BE0000AE071FEE70F922E4
:0F099F00D2A11209BAC2A17F051209BEC2A022BD
:0C09C600C2A11209BAD2A17F050209BE2D
:10093500C2A0A20192A17F051209BE1209BAC2A0E6
:07094500D2A17F050209BEEB
:100960001209BAA2A19202C2A07F051209BEA20278
:010970002264
:02082B00AD0717
:10082D00E4FCC2A07F051209BEED30E704D2A18021
:10083D0002C2A17F051209BED2A0ED25E0FD7F0504
:09084D001209BE0CBC08DBC2A0BC
:01085600227F
:1008E500E4FC1209BAED25E0FD30A103430501C280
:0C08F500A07F051209BE0CBC08E8AF058E
:0109010022D3
:1000030002034BE86480F8E933E83360110460F0DD
:10001300ED33EC337009E8FCE9FDEAFEEBFF220463
:1000230060DED3EB9FEA9EE99DE8C2E78CF0C2F75E
:1000330095F0400CE8CCF8E9CDF9EACEFAEBCFFB2A
:1000430012031685D0F05804700320D5B3E804706A
:10005300075002B2D502035592D5EC0460F7E4CC05
:10006300C0E0C398F8603B94186008400DD0E0FBF3
:1000730002032DE4FBFAC9FC8028E830E406E4C956
:10008300FBE4CAFCE830E305E4C9CACBFCE8540747
:100093006010F8C3E913F9EA13FAEB13FBEC13FC52
:1000A300D8F130F52FC3E49CFCEF9BFFEE9AFEEDF5
:1000B30099FDD0E0FBEF4E4D4C701222DB0302039F
:1000C30052EC2CFCEF33FFEE33FEED33FDED30E766
:1000D300EB02032DEF2BFFEE3AFEED39FDD0E0FBF3
:1000E30050130BBB0003020355ED13FDEE13FEEF9C
:0800F30013FFEC13FC02032DC6
:1000FB00EC4D6011E8497017ED33EC3304600DE4FF
:10010B00FCFFFEFD22E933E8330470F802034B12C7
:10011B00031658046009E4CC2481500628500902C8
:10012B000355284003020352C0E0EB4A7044B980E8
:10013B0006D0E0FB020341EF4E701CBD8008EBFFC5
:10014B00EAFEE9FD80EBE98DF0A4FEE5F00201E4A7
:10015B00E9CDF9EAFEEBFFEF89F0A4FCE5F0CE89DF
:10016B00F0A42EFFE435F0CD89F0A42DFEE435F09C
:10017B008067EF4E7005BD80D780C3EF8BF0A4ACCA
:10018B00F0EE8BF0A42CFCE435F0F8EF8AF0A42C05
:10019B00E5F038FCE433CB8DF0A42CFCE5F03BF818
:1001AB00EE8AF0A42CFCE5F038F8E433CF89F0A408
:1001BB002CFCE5F038CF3400CE89F0A42FFFE5F00E
:1001CB003EFEE433C98DF0A42EFEE5F039CD8AF066
:1001DB00A42FFFE5F03EFEE43DFD33D0E0FB5007DE
:1001EB000BBB000F020355EC2CFCEF33FFEE33FE81
:0601FB00ED33FD02032DAF
:10020100020355EC5D046005E85904700302034BD9
:10021100120316580460F6EC4860F2EC7004FDFE1F
:10022100FF22C860DB2481C85009C39860025006D0
:100231000203529850CAF582E9294B4A7005AB82F4
:1002410002034175F0007C1A7880C3EF9BEE9AEDB2
:1002510099400DC3EF9BFFEE9AFEED99FDE842F048
:10026100DC23ACF0D0E0FFD0E0FED0E0FDAB82209B
:10027100E7101BEB60BAEC2CFCEF33FFEE33FEED25
:1002810033FD02032DE803F830E705C0F075F000F7
:10029100EF2FFFEE33FEED33FD40B830E7C280AA09
:1002A10075F020800E75F010800575F0087D007ED8
:1002B100007F003392D530D5031203C7EC334010D1
:1002C100EF33FFEE33FEED33FDEC33FCD5F0ED22E1
:0E02D100E5F0247EA2D513CC92E7CDCEFF221D
:1002DF00EDD2E7CD33EC3392D524814006E4FFFE17
:1002EF00FDFC22FCE4CFCECDCC24E0501174FF8076
:1002FF00EDC3CC13CCCD13CDCE13CECF13CF047013
:07030F00F030D5DE0203C748
:10031600E9D2E7C933E833F892D5EDD2E7CD33EC2D
:0703260033FC5002B2D522A6
:10032D00EC30E7100FBF000C0EBE00080DBD000431
:10033D000BEB6014A2D5EB13FCED92E7FD2274FFDD
:10034D00FCFDFEFF22E480F8A2D574FF13FC7D8036
:03035D00E480EF4A
:03000000020641B4
:0C064100787FE4F6D8FD7581420206883F
:10036000EF8DF0A4A8F0CF8CF0A428CE8DF0A42EB1
:02037000FE226B
:10037200BC000BBE0029EF8DF084FFADF022E4CC6F
:10038200F875F008EF2FFFEE33FEEC33FCEE9DEC38
:10039200984005FCEE9DFE0FD5F0E9E4CEFD22ED7E
:1003A200F8F5F0EE8420D21CFEADF075F008EF2FC8
:1003B200FFED33FD4007985006D5F0F222C398FDB9
:0503C2000FD5F0EA2256
:0E03C700C3E49FFFE49EFEE49DFDE49CFC2247
:10064D00020971E493A3F8E493A34003F68001F249
:10065D0008DFF48029E493A3F85407240CC8C333AE
:10066D00C4540F4420C8834004F456800146F6DF7D
:10067D00E4800B01020408102040809007FEE47E08
:10068D00019360BCA3FF543F30E509541FFEE49372
:10069D00A360010ECF54C025E060A840B8E493A339
:1006AD00FAE493A3F8E493A3C8C582C8CAC583CA64
:1006BD00F0A3C8C582C8CAC583CADFE9DEE780BE1C
:01082A0000CD
:00000001FF
