:10087A00C0F9A4B0999282F880908880C6C0868E0A
:10088A00BF7F40792430191202780010818385874E
:0A089A00898B8D80828486888A8C09
:10099C00071250592005030523010E17011D0001F4
:0B09AC001C00C100010F010219010234
:0A0A6A007F01E493FD1208077FF4FA
:070A7400AE071FEE70FA222D
:1007C700EF24FC601414601514601914601A2407D0
:1007D700701CC2A5C2A6C2A722C2A58002D2A5C20A
:0F07E700A6D2A722C2A58002D2A5D2A6D2A7224F
:1007F600E493FD7F011208077FC8120A747DFF7F0C
:0108060001F0
:10080700AE077F061207C7AF067401A80708800264
:0E081700C333D8FCF5807F071207C78D8022FF
:100A4400E4FF1207C7E4F5807F041207C77580FF2F
:030A540002082570
:10059C001208F67FCC1209617F441209611208F629
:1005AC007FCC1209617FBE1209611209D38F1F1211
:1005BC0009D38F1E1208F6E51EFEE51FFFFDAC06E3
:1005CC00E412010EE4FBFA7980783D1200038F0BE4
:1005DC008E0A8D098C08E4FFFE7D207C41AB0BAAB2
:0F05EC000AA909A8081200031201478E0C8F0DEF
:0105FB0022DD
:1002680012059C7DC1E4FF1208077FC8120A747D3D
:10027800FFE4FF12080790087B1207F6AE0CAF0DDB
:100288007C007D64120205747A2FF58274083EF5AD
:1002980083E493FD7F051208077FC8120A747DFF67
:1002A8007F05120807AE0CAF0D7C007D0A1202050F
:1002B8007C007D0A120205748C2DF58274083CF5C9
:1002C80083E493FD7F061208077FC8120A747DFF36
:1002D8007F06120807AE0CAF0D7C007D0A120205DE
:1002E800747A2DF58274083CF583E493FD7F071238
:0E02F80008077FC8120A747DFF7F07020807FF
:10082500E4FD7F8E120A30E4F52DE52D90089D93A9
:10083500FF7412252DF8E6FD120A30052DE52DC3AE
:0B084500940740E67D807F8E020A30A1
:10094300E4F52EE52E90089693FF120760741225A6
:0D0953002EF8A607052EE52EC3940740E6FA
:010960002274
:100306001209437DC1E4FF1208077FC8120A747DF3
:10031600FFE4FF12080790087C1207F6E514C454A0
:100326000F90087A93FD7F031208077FC8120A749C
:100336007DFF7F03120807E514540F93FD7F041217
:1003460008077FC8120A747DFF7F041208077DBF65
:100356007F051208077FC8120A747DFF7F05120801
:1003660007E513C4540F93FD7F061208077FC812D2
:100376000A747DFF7F06120807E513540F93FD7F6D
:10038600071208077FC8120A747DFF7F0702080755
:1004AD001209437DC1E4FF120A6F7DFFE4FF1208BC
:1004BD000790087C120A6A120803E513C4540F90C2
:1004CD00087A93FD7F03120A6F7DFF7F03120807E1
:1004DD00E513540F93FD7F04120A6F7DFF7F041205
:1004ED0008077DBF7F05120A6F7DFF7F0512080784
:1004FD00E512C4540F93FD7F061208077F88120A78
:10050D00747DFF7F06120807E512540F93FD7F07D8
:0F051D001208077F88120A747DFF7F0702080704
:10064900D2B3D2B4D2B5C2B220B50D7F64120A7446
:1006590030B5FD751D0DB20020B40B7F64120A740C
:1006690030B4FD751D11D2B2D2B4D2B5C2B320B522
:100679000B7F64120A7430B5FD751D0C20B40B7F15
:0B06890064120A7430B4FD751D1022CD
:10091D00120649E51DB4100CE50EC3945A5002059C
:10092D000EE4F51DE51DB4110CE50ED3940A40023D
:06093D00150EE4F51D2279
:1006DC0012091D7DC1E4FF120A6F7DFFE4FF1208B1
:1006EC000790087D120A6A120803E50E75F00A8459
:1006FC0090087A93FD7F06120A6F7DFF7F06120821
:10070C0007E50E75F00A84E5F093FD7F07120A6F7A
:07071C007DFF7F07020807C3
:10042200E4F52F2000337F041207C77580FD7FC8D3
:10043200120A74AE0CAF0D7C007D0A120205C3EFE6
:10044200950EEE94007F0540081207C77580108054
:10045200511207C7E4F58080497F041207C77580EF
:10046200FF0F1207C7E4F580120943E512701BE57E
:100472001370177F051207C77580101F1207C77503
:1004820080FE7FC8120A74752F01E52FB40113E5AF
:1004920012540FC39405400A7F051207C7E4F58082
:0A04A200F52F7F041207C77580FFD5
:0104AC00222D
:10069400120649E51DB40C0D050FE50FB4040375EE
:1006A4000F01E4F51DE50FB40103120268E50FB470
:1006B400021B120306D2B3D2B4D2B5C2B220B40D17
:1006C4007F64120A7420B4051204AD80F8E50FB4F7
:0806D40003031206DC020422FC
:10052C00AB07AA067F031208A4AA06AB077C007DC2
:10053C0064120205748C2FF58274083EF583E493E3
:10054C00FDE4FF120A6F7DFFE4FF1208077C007DBB
:10055C000AAF03AE021202057C007D0A120205747A
:10056C007A2DF58274083CF583120A6A120803AEE0
:10057C0002AF037C007D0A120205747A2DF5827499
:10058C00083CF5837F02120A6C7DFF7F020208078C
:1008CE007B007A007910752A027D011205FCE51075
:1008DE0090087A93FDE4FF120A6FE51193FD7F01F4
:0808EE001208077FF4020A74EE
:03085000120A4445
:10085300E4F52BF52C7F031208A48E2B8F2C7C0040
:100863007D3312020512052CC37405952C75F033E4
:05087300A4FF120A1AA7
:0208780080D925
:100A5700E4FEC297EF1392A3EFC313FFD2970EBE24
:020A670008F095
:010A6900226A
:100A3000C29300C29700D29300120A57AF05120A60
:040A400057C29322E4
:10076000E4FDC29300C29700D29300120A57E4FF3F
:10077000C297EDC313FD30A303430580D2970FBF8B
:1007800008EEC29300C29700D29700C2A300D2A382
:0307900000AF05B2
:010793002243
:040A04007F057E00EC
:100A08007C007D0A1201F3EF1FAC0670011E4C70CA
:020A1800F622C4
:02096100AB07E2
:10096300E4FAC294EB139294120A04D294EBC313E5
:0C097300FB0ABA08ED7F057E00020A08AE
:1009D300E4FAC294EBC313FBD29430940343038031
:0909E300120A040ABA08EBAF0382
:0109EC0022E8
:1008F600C201D2947F0C7E00120A08C2947F507EF9
:1009060000120A08D2947F0A7E00120A08A2949264
:0609160001120A04A20117
:01091C0022B8
:040A8A00D2A07F0572
:080A8E0000AE071FEE70F92213
:0F0A7B00D2A1120A8AC2A17F05120A8EC2A0223E
:0C0A9600C2A1120A8AD2A17F05020A8EBA
:1009ED00C2A0A20292A17F05120A8E120A8AC2A08B
:0709FD00D2A17F05020A8E62
:0A09B800AB07120A7B7F9012079B29
:1009C200120A8AA2A19202C2A07F05120A8EA20274
:0109D2002202
:07079400AB05120A7B7FA0F8
:02079B00AD07A8
:10079D00E4FCC2A07F05120A8EED30E704D2A180E1
:1007AD0002C2A17F05120A8ED2A0ED25E0FD7F05C4
:0907BD00120A8E0CBC08DBC2A07C
:0107C6002210
:10097F00E4FC120A8AED25E0FD30A103430501C214
:0C098F00A07F05120A8E0CBC08E8AF0522
:01099B002239
:1008A4001209B8AF0312079B1209C2120A7B7F9187
:1008B40012079B1209C212097FAD077C00D20212F3
:0908C40009ED120A967E00AF0551
:0108CD002208
:100A1A001209B87F4112079B1209C2AF0312079B42
:060A2A001209C2020A9647
:100723008B218A2289231207941209C2AF0312076D
:100733009B1209C2AF251525EF601FAB210523E5E9
:1007430023AA227002052214F91201C8FF12079B83
:0D0753001209C27FC8120A8E80DA020A96CF
:1005FC008B268A2789281207941209C2AF03120787
:10060C009B1209C2120A7B7FA112079B1209C2AF6F
:10061C002A152AEF602412097FAB260528E528AAA3
:10062C00277002052714F9EF1201E1E52A6004C2D4
:0D063C00028002D2021209ED80D5020A965A
:10000300EC4D6011E8497017ED33EC3304600DE4F7
:10001300FCFFFEFD22E933E8330470F80201B3125A
:10002300017E58046009E4CC24815006285009025B
:1000330001BD2840030201BAC0E0EB4A7044B98015
:1000430006D0E0FB0201A9EF4E701CBD8008EBFF58
:10005300EAFEE9FD80EBE98DF0A4FEE5F00200EC99
:10006300E9CDF9EAFEEBFFEF89F0A4FCE5F0CE89D8
:10007300F0A42EFFE435F0CD89F0A42DFEE435F095
:100083008067EF4E7005BD80D780C3EF8BF0A4ACC3
:10009300F0EE8BF0A42CFCE435F0F8EF8AF0A42CFE
:1000A300E5F038FCE433CB8DF0A42CFCE5F03BF811
:1000B300EE8AF0A42CFCE5F038F8E433CF89F0A401
:1000C3002CFCE5F038CF3400CE89F0A42FFFE5F007
:1000D3003EFEE433C98DF0A42EFEE5F039CD8AF05F
:1000E300A42FFFE5F03EFEE43DFD33D0E0FB5007D7
:1000F3000BBB000F0201BDEC2CFCEF33FFEE33FE14
:06010300ED33FD02019541
:1001090075F020800E75F010800575F0087D007E71
:10011900007F003392D530D50312025AEC334010D8
:10012900EF33FFEE33FEED33FDEC33FCD5F0ED227A
:0E013900E5F0247EA2D513CC92E7CDCEFF22B6
:10014700EDD2E7CD33EC3392D524814006E4FFFEB0
:10015700FDFC22FCE4CFCECDCC24E0501174FF800F
:10016700EDC3CC13CCCD13CDCE13CECF13CF0470AC
:07017700F030D5DE02025A50
:10017E00E9D2E7C933E833F892D5EDD2E7CD33ECC7
:07018E0033FC5002B2D52240
:10019500EC30E7100FBF000C0EBE00080DBD0004CB
:1001A5000BEB6014A2D5EB13FCED92E7FD2274FF77
:1001B500FCFDFEFF22E480F8A2D574FF13FC7D80D0
:0301C500E480EFE4
:0300000002039662
:0C039600787FE4F6D8FD75812F0203DDAE
:1001C800BB010689828A83E0225002E722BBFE0235
:0901D800E32289828A83E4932268
:1001E100BB010689828A83F0225002F722BBFE01FD
:0201F100F322F7
:1001F300EF8DF0A4A8F0CF8CF0A428CE8DF0A42E20
:02020300FE22D9
:10020500BC000BBE0029EF8DF084FFADF022E4CCDD
:10021500F875F008EF2FFFEE33FEEC33FCEE9DECA6
:10022500984005FCEE9DFE0FD5F0E9E4CEFD22EDEC
:10023500F8F5F0EE8420D21CFEADF075F008EF2F36
:10024500FFED33FD4007985006D5F0F222C398FD27
:050255000FD5F0EA22C4
:0E025A00C3E49FFFE49EFEE49DFDE49CFC22B5
:1003A200020850E493A3F8E493A34003F68001F219
:1003B20008DFF48029E493A3F85407240CC8C3335C
:1003C200C4540F4420C8834004F456800146F6DF2B
:1003D200E4800B010204081020408090099CE47E16
:1003E200019360BCA3FF543F30E509541FFEE49320
:1003F200A360010ECF54C025E060A840B8E493A3E7
:10040200FAE493A3F8E493A3C8C582C8CAC583CA11
:10041200F0A3C8C582C8CAC583CADFE9DEE780BEC9
:0109B700003F
:00000001FF
