:1001F900E4FEC297EF1392A3EFC313FFD2970EBE8B
:0202090008F0FB
:01020B0022D0
:1001E500C29300C29700D293001201F9AF05120124
:0401F500F9C2932296
:10011900E4FDC29300C29700D293001201F9E4FFF3
:10012900C297EDC313FD30A303430580D2970FBFD8
:1001390008EEC29300C29700D29700C2A300D2A3CF
:0301490000AF05FF
:01014C002290
:1001A70081838587898B8D80828486888A8CC0F934
:1001B700A4B0999282F880908880C6C0868EBF7F4F
:09023500070830502317020618D7
:0B022A00EF1FAC0670011E4C70F622A6
:10014D00EF24FB601114601514601614601A24045A
:10015D00701CC2A58002D2A5C2A6D2A722C2A580BC
:0F016D0002D2A5D2A6D2A722C2A5C2A6C2A7229D
:10020C007F0512014DE4F5801F12014D7580FF2210
:10008F00540F93FF0D1200B67FF47E0112022A7FE8
:10009F00FF1200B69001C5E493FF0D1200B67FF476
:0700AF007E0112022A7FFF0F
:1000B600AE077F0612014DAF057401A8070880023E
:0E00C600C333D8FCF5807F0712014D8E8022D7
:10017C00E4FD7F8E1201E5E4F50FE50F9001AE93DF
:10018C00FF7408250FF8E6FD1201E5050FE50FC316
:0B019C00940740E67D807F8E0201E5A5
:1001C700E4F50FE50F9001A793FF120119740825B5
:0D01D7000FF8A607050FE50FC3940740E6DB
:0101E40022F8
:1000D400E50AC4540F9001B593FFE4FD1200AAE5AC
:1000E4000A12008FE509C4540F9001B51200A7E568
:1000F4000912008FE508C4540F9001B51200A7E55A
:1001040008540F93FF0D1200B67FF47E0112022AE9
:050114007FFF0200B6B0
:0E021C0012020C12017C1201C71200D480F8ED
:03000000020003F8
:0C000300787FE4F6D8FD75810F02004AFA
:10000F0002021CE493A3F8E493A34003F68001F2E9
:10001F0008DFF48029E493A3F85407240CC8C333F2
:10002F00C4540F4420C8834004F456800146F6DFC1
:10003F00E4800B0102040810204080900235E47E1A
:10004F00019360BCA3FF543F30E509541FFEE493B6
:10005F00A360010ECF54C025E060A840B8E493A37D
:10006F00FAE493A3F8E493A3C8C582C8CAC583CAA8
:10007F00F0A3C8C582C8CAC583CADFE9DEE780BE60
:01023E0000BF
:00000001FF
